:100000000C9461000C9473000C9473000C947300B6
:100010000C9473000C9473000C9473000C94730094
:100020000C9473000C9473000C9473000C94730084
:100030000C9473000C9473000C9473000C94730074
:100040000C94D3010C9473000C9473000C94730003
:100050000C9473000C9473000C9473000C94730054
:100060000C9473000C94730000000000240027001F
:100070002A0000000000250028002B0000000000DE
:1000800023002600290004040404040404040202DA
:100090000202020203030303030301020408102007
:1000A0004080010204081020010204081020000012
:1000B0000008000201000003040700000000000027
:1000C000000011241FBECFEFD8E0DEBFCDBF21E07E
:1000D000A0E0B1E001C01D92AB30B207E1F70E9491
:1000E0001D020C946E030C940000833081F028F400
:1000F000813099F08230A9F008958730A9F08830D6
:10010000C9F08430B1F4809180008F7D03C080916C
:1001100080008F7780938000089584B58F7784BDA9
:10012000089584B58F7DFBCF8091B0008F77809349
:10013000B00008958091B0008F7DF9CFCF93DF9309
:10014000EAEBF0E08491E6EAF0E0D491E2E9F0E055
:10015000C491CC23A1F081110E947500EC2FF0E036
:10016000EE0FFF1FE458FF4FA591B491EC91ED23E2
:1001700081E090E009F480E0DF91CF91089580E084
:1001800090E0FACF1F93CF93DF93282F30E0F9014F
:10019000E255FF4F8491F901E656FF4FD491F901E2
:1001A000EA57FF4FC491CC23A9F0162F81110E946A
:1001B0007500EC2FF0E0EE0FFF1FEE58FF4FA591FA
:1001C000B4918FB7F894EC91111108C0D095DE234B
:1001D000DC938FBFDF91CF911F910895DE2BF8CF75
:1001E000CF93DF9390E0FC01E656FF4F24918A57AE
:1001F0009F4FFC0184918823D1F090E0880F991FD4
:10020000FC01E859FF4FA591B491FC01EE58FF4F56
:10021000C591D49161110EC09FB7F8948C91E22FD3
:10022000E0958E238C932881E223E8839FBFDF91A2
:10023000CF9108958FB7F894EC91E22BEC938FBF98
:10024000F6CF3FB7F8948091050190910601A091F7
:100250000701B091080126B5A89B05C02F3F19F0F2
:100260000196A11DB11D3FBFBA2FA92F982F882736
:10027000BC01CD01620F711D811D911D42E0660F11
:10028000771F881F991F4A95D1F708958F929F92E3
:10029000AF92BF92CF92DF92EF92FF926B017C01FF
:1002A0000E9421014B015C01C114D104E104F1045D
:1002B000B9F00E942101681979098A099B09683EF1
:1002C00073408105910580F321E0C21AD108E1084D
:1002D000F10888EE880E83E0981EA11CB11CE4CFC3
:1002E000FF90EF90DF90CF90BF90AF909F908F9056
:1002F00008950F931F93CF93DF93082F162FD42FBA
:10030000C8E06D2F6170802F0E94C200D69561E019
:10031000812F0E94C20060E0812F0E94C200C15064
:1003200081F7DF91CF911F910F91089540910A01BC
:1003300062E083E00E94790160E084E00E94C200F4
:1003400061E084E00E94C20060E084E00E94C2009C
:100350004091090165E086E00E94790160E087E054
:100360000E94C20061E087E00E94C20060E087E076
:100370000C94C2008FEF80930A01809309010E94C0
:10038000960168EC70E080E090E00E9446011092D7
:100390000A01109209010E9496016AEF70E080E064
:1003A00090E00C9446011F920F920FB60F92112409
:1003B0002F933F938F939F93AF93BF9380910101AE
:1003C00090910201A0910301B091040130910001CC
:1003D00023E0230F2D3758F50196A11DB11D209361
:1003E00000018093010190930201A0930301B09357
:1003F00004018091050190910601A0910701B0913F
:1004000008010196A11DB11D80930501909306017D
:10041000A0930701B0930801BF91AF919F918F9175
:100420003F912F910F900FBE0F901F90189526E8C7
:10043000230F0296A11DB11DD2CF789484B582609E
:1004400084BD84B5816084BD85B5826085BD85B578
:10045000816085BD80916E00816080936E001092F6
:100460008100809181008260809381008091810071
:100470008160809381008091800081608093800002
:100480008091B10084608093B1008091B000816060
:100490008093B00080917A00846080937A0080918C
:1004A0007A00826080937A0080917A0081608093E4
:1004B0007A0080917A00806880937A001092C1005F
:1004C00061E083E00E94F00061E082E00E94F000C1
:1004D00061E084E00E94F00061E086E00E94F000AC
:1004E00061E085E00E94F00061E087E00E94F0009A
:1004F00060E08CE00E94F000812C912C54018394E8
:1005000066246394712C20E0422E20E0522E10923B
:100510000A01109209010E949601C4E6D0E010E0A1
:1005200000E080910A01B501A401002E04C0440F2F
:10053000551F661F771F0A94D2F7F82EF42AF092FF
:100540000A010E9496010115110569F0C801019781
:10055000930102C0220F331F8A95E2F7C9018095EB
:100560008F2180930A010E949E007C01892B09F053
:10057000A6C080910A01813009F0A1C010920A0141
:10058000109209010E949601D12CC12CD501C40101
:100590000C2C04C0880F991FAA1FBB1F0A94D2F706
:1005A00020910A01822B80930A010E94960162E346
:1005B00070E080E090E00E9446013FEFC31AD30A4A
:1005C00088E0C816D10411F710920A010E94960122
:1005D000D501C4010E2C04C0880F991FAA1FBB1F90
:1005E0000A94D2F720910901822B809309010E947D
:1005F000960162E370E080E090E00E9446012FEFF8
:10060000E21AF20A38E0E316F10411F764970E9447
:100610009601BE010D2E000C880B990B0E9446011D
:100620000F5F1F4F0830110509F07BCF10920A01B0
:100630000E94960110E000E080910901B501A4013B
:10064000002E04C0440F551F661F771F0A94D2F76F
:10065000F82EF42AF09209010E9496010115110565
:1006600069F0C8010197930102C0220F331F8A95D8
:10067000E2F7C90180958F21809309010E949E00B5
:10068000892B41F480910901813021F00E94BA0147
:10069000C4E6D0E00E949601BE010D2E000C880B2E
:1006A000990B0E9446010F5F1F4F0830110521F67C
:1006B0004114510409F42BCF0E94000028CF0E945E
:1006C0009E00892B09F0A3CF80910A01813009F4A3
:1006D0009ECF0E94BA01C4E6D0E099CFF894FFCF34
:00000001FF
